{
  "address": "0x9170DF8Ab12Ce3abA8982542c2dD4bbac8a8bB8d",
  "abi": [
    {
      "inputs": [],
      "stateMutability": "nonpayable",
      "type": "constructor"
    },
    {
      "anonymous": false,
      "inputs": [
        {
          "indexed": true,
          "internalType": "address",
          "name": "owner",
          "type": "address"
        },
        {
          "indexed": true,
          "internalType": "address",
          "name": "approved",
          "type": "address"
        },
        {
          "indexed": true,
          "internalType": "uint256",
          "name": "tokenId",
          "type": "uint256"
        }
      ],
      "name": "Approval",
      "type": "event"
    },
    {
      "anonymous": false,
      "inputs": [
        {
          "indexed": true,
          "internalType": "address",
          "name": "owner",
          "type": "address"
        },
        {
          "indexed": true,
          "internalType": "address",
          "name": "operator",
          "type": "address"
        },
        {
          "indexed": false,
          "internalType": "bool",
          "name": "approved",
          "type": "bool"
        }
      ],
      "name": "ApprovalForAll",
      "type": "event"
    },
    {
      "anonymous": false,
      "inputs": [
        {
          "indexed": true,
          "internalType": "address",
          "name": "donor",
          "type": "address"
        },
        {
          "indexed": true,
          "internalType": "uint256",
          "name": "tokenId",
          "type": "uint256"
        },
        {
          "indexed": false,
          "internalType": "uint256",
          "name": "value",
          "type": "uint256"
        }
      ],
      "name": "Donation",
      "type": "event"
    },
    {
      "anonymous": false,
      "inputs": [
        {
          "indexed": true,
          "internalType": "uint256",
          "name": "to",
          "type": "uint256"
        },
        {
          "indexed": true,
          "internalType": "uint256",
          "name": "from",
          "type": "uint256"
        },
        {
          "indexed": false,
          "internalType": "uint256",
          "name": "valueClaimed",
          "type": "uint256"
        }
      ],
      "name": "DonationClaimed",
      "type": "event"
    },
    {
      "anonymous": false,
      "inputs": [
        {
          "indexed": true,
          "internalType": "address",
          "name": "previousOwner",
          "type": "address"
        },
        {
          "indexed": true,
          "internalType": "address",
          "name": "newOwner",
          "type": "address"
        }
      ],
      "name": "OwnershipTransferred",
      "type": "event"
    },
    {
      "anonymous": false,
      "inputs": [
        {
          "indexed": true,
          "internalType": "uint256",
          "name": "tokenId",
          "type": "uint256"
        },
        {
          "indexed": true,
          "internalType": "uint256",
          "name": "dependency",
          "type": "uint256"
        },
        {
          "indexed": false,
          "internalType": "uint256",
          "name": "newShare",
          "type": "uint256"
        }
      ],
      "name": "SharesUpdated",
      "type": "event"
    },
    {
      "anonymous": false,
      "inputs": [
        {
          "indexed": true,
          "internalType": "address",
          "name": "from",
          "type": "address"
        },
        {
          "indexed": true,
          "internalType": "address",
          "name": "to",
          "type": "address"
        },
        {
          "indexed": true,
          "internalType": "uint256",
          "name": "tokenId",
          "type": "uint256"
        }
      ],
      "name": "Transfer",
      "type": "event"
    },
    {
      "inputs": [
        {
          "internalType": "uint256",
          "name": "tokenId",
          "type": "uint256"
        },
        {
          "internalType": "uint256",
          "name": "dependency",
          "type": "uint256"
        },
        {
          "internalType": "uint256",
          "name": "share",
          "type": "uint256"
        }
      ],
      "name": "addDependency",
      "outputs": [],
      "stateMutability": "nonpayable",
      "type": "function"
    },
    {
      "inputs": [
        {
          "internalType": "address",
          "name": "to",
          "type": "address"
        },
        {
          "internalType": "uint256",
          "name": "tokenId",
          "type": "uint256"
        }
      ],
      "name": "approve",
      "outputs": [],
      "stateMutability": "nonpayable",
      "type": "function"
    },
    {
      "inputs": [
        {
          "internalType": "address",
          "name": "owner",
          "type": "address"
        }
      ],
      "name": "balanceOf",
      "outputs": [
        {
          "internalType": "uint256",
          "name": "",
          "type": "uint256"
        }
      ],
      "stateMutability": "view",
      "type": "function"
    },
    {
      "inputs": [
        {
          "internalType": "uint256",
          "name": "to",
          "type": "uint256"
        },
        {
          "internalType": "uint256",
          "name": "from",
          "type": "uint256"
        }
      ],
      "name": "claimToDep",
      "outputs": [],
      "stateMutability": "nonpayable",
      "type": "function"
    },
    {
      "inputs": [
        {
          "internalType": "uint256",
          "name": "tokenId",
          "type": "uint256"
        }
      ],
      "name": "claimToOwner",
      "outputs": [],
      "stateMutability": "nonpayable",
      "type": "function"
    },
    {
      "inputs": [
        {
          "internalType": "uint256",
          "name": "to",
          "type": "uint256"
        },
        {
          "internalType": "uint256",
          "name": "from",
          "type": "uint256"
        }
      ],
      "name": "claimable",
      "outputs": [
        {
          "internalType": "uint256",
          "name": "",
          "type": "uint256"
        }
      ],
      "stateMutability": "view",
      "type": "function"
    },
    {
      "inputs": [
        {
          "internalType": "string",
          "name": "tokenURI",
          "type": "string"
        },
        {
          "internalType": "uint256[]",
          "name": "deps",
          "type": "uint256[]"
        },
        {
          "internalType": "uint256[]",
          "name": "shares",
          "type": "uint256[]"
        }
      ],
      "name": "createToken",
      "outputs": [
        {
          "internalType": "uint256",
          "name": "",
          "type": "uint256"
        }
      ],
      "stateMutability": "nonpayable",
      "type": "function"
    },
    {
      "inputs": [
        {
          "internalType": "uint256",
          "name": "tokenId",
          "type": "uint256"
        }
      ],
      "name": "donate",
      "outputs": [],
      "stateMutability": "payable",
      "type": "function"
    },
    {
      "inputs": [
        {
          "internalType": "uint256",
          "name": "tokenId",
          "type": "uint256"
        }
      ],
      "name": "getApproved",
      "outputs": [
        {
          "internalType": "address",
          "name": "",
          "type": "address"
        }
      ],
      "stateMutability": "view",
      "type": "function"
    },
    {
      "inputs": [
        {
          "internalType": "uint256",
          "name": "tokenId",
          "type": "uint256"
        }
      ],
      "name": "getDependencies",
      "outputs": [
        {
          "internalType": "uint256[]",
          "name": "",
          "type": "uint256[]"
        }
      ],
      "stateMutability": "view",
      "type": "function"
    },
    {
      "inputs": [],
      "name": "getFee",
      "outputs": [
        {
          "internalType": "uint256",
          "name": "",
          "type": "uint256"
        },
        {
          "internalType": "uint256",
          "name": "",
          "type": "uint256"
        }
      ],
      "stateMutability": "view",
      "type": "function"
    },
    {
      "inputs": [
        {
          "internalType": "uint256",
          "name": "tokenId",
          "type": "uint256"
        },
        {
          "internalType": "uint256",
          "name": "dependency",
          "type": "uint256"
        }
      ],
      "name": "getShare",
      "outputs": [
        {
          "internalType": "uint256",
          "name": "",
          "type": "uint256"
        }
      ],
      "stateMutability": "view",
      "type": "function"
    },
    {
      "inputs": [],
      "name": "getSplit",
      "outputs": [
        {
          "internalType": "uint256",
          "name": "",
          "type": "uint256"
        },
        {
          "internalType": "uint256",
          "name": "",
          "type": "uint256"
        }
      ],
      "stateMutability": "view",
      "type": "function"
    },
    {
      "inputs": [],
      "name": "getTax",
      "outputs": [
        {
          "internalType": "uint256",
          "name": "",
          "type": "uint256"
        },
        {
          "internalType": "uint256",
          "name": "",
          "type": "uint256"
        }
      ],
      "stateMutability": "view",
      "type": "function"
    },
    {
      "inputs": [
        {
          "internalType": "uint256",
          "name": "tokenId",
          "type": "uint256"
        }
      ],
      "name": "getTotalShares",
      "outputs": [
        {
          "internalType": "uint256",
          "name": "",
          "type": "uint256"
        }
      ],
      "stateMutability": "view",
      "type": "function"
    },
    {
      "inputs": [],
      "name": "getTreasuryBalance",
      "outputs": [
        {
          "internalType": "uint256",
          "name": "",
          "type": "uint256"
        }
      ],
      "stateMutability": "view",
      "type": "function"
    },
    {
      "inputs": [
        {
          "internalType": "address",
          "name": "owner",
          "type": "address"
        },
        {
          "internalType": "address",
          "name": "operator",
          "type": "address"
        }
      ],
      "name": "isApprovedForAll",
      "outputs": [
        {
          "internalType": "bool",
          "name": "",
          "type": "bool"
        }
      ],
      "stateMutability": "view",
      "type": "function"
    },
    {
      "inputs": [],
      "name": "name",
      "outputs": [
        {
          "internalType": "string",
          "name": "",
          "type": "string"
        }
      ],
      "stateMutability": "view",
      "type": "function"
    },
    {
      "inputs": [],
      "name": "numberOfTokens",
      "outputs": [
        {
          "internalType": "uint256",
          "name": "",
          "type": "uint256"
        }
      ],
      "stateMutability": "view",
      "type": "function"
    },
    {
      "inputs": [],
      "name": "owner",
      "outputs": [
        {
          "internalType": "address",
          "name": "",
          "type": "address"
        }
      ],
      "stateMutability": "view",
      "type": "function"
    },
    {
      "inputs": [
        {
          "internalType": "uint256",
          "name": "tokenId",
          "type": "uint256"
        }
      ],
      "name": "ownerOf",
      "outputs": [
        {
          "internalType": "address",
          "name": "",
          "type": "address"
        }
      ],
      "stateMutability": "view",
      "type": "function"
    },
    {
      "inputs": [],
      "name": "renounceOwnership",
      "outputs": [],
      "stateMutability": "nonpayable",
      "type": "function"
    },
    {
      "inputs": [
        {
          "internalType": "address",
          "name": "from",
          "type": "address"
        },
        {
          "internalType": "address",
          "name": "to",
          "type": "address"
        },
        {
          "internalType": "uint256",
          "name": "tokenId",
          "type": "uint256"
        }
      ],
      "name": "safeTransferFrom",
      "outputs": [],
      "stateMutability": "nonpayable",
      "type": "function"
    },
    {
      "inputs": [
        {
          "internalType": "address",
          "name": "from",
          "type": "address"
        },
        {
          "internalType": "address",
          "name": "to",
          "type": "address"
        },
        {
          "internalType": "uint256",
          "name": "tokenId",
          "type": "uint256"
        },
        {
          "internalType": "bytes",
          "name": "data",
          "type": "bytes"
        }
      ],
      "name": "safeTransferFrom",
      "outputs": [],
      "stateMutability": "nonpayable",
      "type": "function"
    },
    {
      "inputs": [
        {
          "internalType": "address",
          "name": "operator",
          "type": "address"
        },
        {
          "internalType": "bool",
          "name": "approved",
          "type": "bool"
        }
      ],
      "name": "setApprovalForAll",
      "outputs": [],
      "stateMutability": "nonpayable",
      "type": "function"
    },
    {
      "inputs": [
        {
          "internalType": "uint24",
          "name": "base",
          "type": "uint24"
        },
        {
          "internalType": "uint8",
          "name": "multiplier",
          "type": "uint8"
        }
      ],
      "name": "setClaimFee",
      "outputs": [],
      "stateMutability": "nonpayable",
      "type": "function"
    },
    {
      "inputs": [
        {
          "internalType": "uint8",
          "name": "base",
          "type": "uint8"
        },
        {
          "internalType": "uint8",
          "name": "multiplier",
          "type": "uint8"
        }
      ],
      "name": "setSplit",
      "outputs": [],
      "stateMutability": "nonpayable",
      "type": "function"
    },
    {
      "inputs": [
        {
          "internalType": "uint24",
          "name": "base",
          "type": "uint24"
        },
        {
          "internalType": "uint8",
          "name": "multiplier",
          "type": "uint8"
        }
      ],
      "name": "setTax",
      "outputs": [],
      "stateMutability": "nonpayable",
      "type": "function"
    },
    {
      "inputs": [
        {
          "internalType": "bytes4",
          "name": "interfaceId",
          "type": "bytes4"
        }
      ],
      "name": "supportsInterface",
      "outputs": [
        {
          "internalType": "bool",
          "name": "",
          "type": "bool"
        }
      ],
      "stateMutability": "view",
      "type": "function"
    },
    {
      "inputs": [],
      "name": "symbol",
      "outputs": [
        {
          "internalType": "string",
          "name": "",
          "type": "string"
        }
      ],
      "stateMutability": "view",
      "type": "function"
    },
    {
      "inputs": [
        {
          "internalType": "uint256",
          "name": "tokenId",
          "type": "uint256"
        }
      ],
      "name": "tokenDonationBalance",
      "outputs": [
        {
          "internalType": "uint256",
          "name": "",
          "type": "uint256"
        }
      ],
      "stateMutability": "view",
      "type": "function"
    },
    {
      "inputs": [
        {
          "internalType": "uint256",
          "name": "tokenId",
          "type": "uint256"
        }
      ],
      "name": "tokenTotalDonated",
      "outputs": [
        {
          "internalType": "uint256",
          "name": "",
          "type": "uint256"
        }
      ],
      "stateMutability": "view",
      "type": "function"
    },
    {
      "inputs": [
        {
          "internalType": "uint256",
          "name": "tokenId",
          "type": "uint256"
        }
      ],
      "name": "tokenURI",
      "outputs": [
        {
          "internalType": "string",
          "name": "",
          "type": "string"
        }
      ],
      "stateMutability": "view",
      "type": "function"
    },
    {
      "inputs": [
        {
          "internalType": "address",
          "name": "from",
          "type": "address"
        },
        {
          "internalType": "address",
          "name": "to",
          "type": "address"
        },
        {
          "internalType": "uint256",
          "name": "tokenId",
          "type": "uint256"
        }
      ],
      "name": "transferFrom",
      "outputs": [],
      "stateMutability": "nonpayable",
      "type": "function"
    },
    {
      "inputs": [
        {
          "internalType": "address",
          "name": "newOwner",
          "type": "address"
        }
      ],
      "name": "transferOwnership",
      "outputs": [],
      "stateMutability": "nonpayable",
      "type": "function"
    },
    {
      "inputs": [
        {
          "internalType": "uint256",
          "name": "tokenId",
          "type": "uint256"
        },
        {
          "internalType": "uint256",
          "name": "dep",
          "type": "uint256"
        },
        {
          "internalType": "uint256",
          "name": "share",
          "type": "uint256"
        }
      ],
      "name": "updateShare",
      "outputs": [],
      "stateMutability": "nonpayable",
      "type": "function"
    }
  ],
  "transactionHash": "0x1404d9078ee11bd42ea939e4c93c05bb924b01faf70bf3f610dff3e5603c87f0",
  "args": [],
  "numDeployments": 1,
  "solcInputHash": "c4c3f12312f7f9d15fbd6eece9050538",
  "bytecode": "0x60806040523480156200001157600080fd5b506040518060400160405280600c81526020017f47726170682046756e64657200000000000000000000000000000000000000008152506040518060400160405280600481526020017f475250480000000000000000000000000000000000000000000000000000000081525081600090805190602001906200009692919062000260565b508060019080519060200190620000af92919062000260565b5050506001600781905550620000da620000ce6200019260201b60201c565b6200019a60201b60201c565b6103e8601160006101000a81548162ffffff021916908362ffffff1602179055506003601160036101000a81548160ff021916908360ff1602179055506103e8601160046101000a81548162ffffff021916908362ffffff1602179055506001601160076101000a81548160ff021916908360ff1602179055506003601160086101000a81548160ff021916908360ff1602179055506002601160096101000a81548160ff021916908360ff16021790555062000375565b600033905090565b6000600860009054906101000a900473ffffffffffffffffffffffffffffffffffffffff16905081600860006101000a81548173ffffffffffffffffffffffffffffffffffffffff021916908373ffffffffffffffffffffffffffffffffffffffff1602179055508173ffffffffffffffffffffffffffffffffffffffff168173ffffffffffffffffffffffffffffffffffffffff167f8be0079c531659141344cd1fd0a4f28419497f9722a3daafe3b4186f6b6457e060405160405180910390a35050565b8280546200026e906200033f565b90600052602060002090601f016020900481019282620002925760008555620002de565b82601f10620002ad57805160ff1916838001178555620002de565b82800160010185558215620002de579182015b82811115620002dd578251825591602001919060010190620002c0565b5b509050620002ed9190620002f1565b5090565b5b808211156200030c576000816000905550600101620002f2565b5090565b7f4e487b7100000000000000000000000000000000000000000000000000000000600052602260045260246000fd5b600060028204905060018216806200035857607f821691505b602082108114156200036f576200036e62000310565b5b50919050565b614e4880620003856000396000f3fe60806040526004361061020f5760003560e01c80638872a94f11610118578063c24e89bc116100a0578063eab585961161006f578063eab58596146107fa578063f14faf6f14610823578063f2fde38b1461083f578063f3a99c0814610868578063f9f16ef2146108a55761020f565b8063c24e89bc1461072b578063c87b56dd14610754578063ced72f8714610791578063e985e9c5146107bd5761020f565b80639c8cc981116100e75780639c8cc9811461064a5780639d5f08f114610673578063a22cb465146106b0578063af51694b146106d9578063b88d4fde146107025761020f565b80638872a94f146105a05780638da5cb5b146105c957806395d89b41146105f45780639b5655dc1461061f5761020f565b806354b762a61161019b57806370a082311161016a57806370a08231146104bd578063715018a6146104fa57806379eb92c7146105115780637d2d379a1461053a57806385fff858146105635761020f565b806354b762a6146103da5780635dd65cfe146104065780636352211e14610443578063661a0d0b146104805761020f565b806312ab3c27116101e257806312ab3c27146102e257806323b872dd1461030e5780632640fc3e1461033757806342842e0e146103745780634c7095351461039d5761020f565b806301ffc9a71461021457806306fdde0314610251578063081812fc1461027c578063095ea7b3146102b9575b600080fd5b34801561022057600080fd5b5061023b60048036038101906102369190613326565b6108d0565b604051610248919061336e565b60405180910390f35b34801561025d57600080fd5b506102666109b2565b6040516102739190613422565b60405180910390f35b34801561028857600080fd5b506102a3600480360381019061029e919061347a565b610a44565b6040516102b091906134e8565b60405180910390f35b3480156102c557600080fd5b506102e060048036038101906102db919061352f565b610a8a565b005b3480156102ee57600080fd5b506102f7610ba2565b60405161030592919061357e565b60405180910390f35b34801561031a57600080fd5b50610335600480360381019061033091906135a7565b610bd9565b005b34801561034357600080fd5b5061035e600480360381019061035991906135fa565b610c39565b60405161036b919061363a565b60405180910390f35b34801561038057600080fd5b5061039b600480360381019061039691906135a7565b610df9565b005b3480156103a957600080fd5b506103c460048036038101906103bf9190613852565b610e19565b6040516103d1919061363a565b60405180910390f35b3480156103e657600080fd5b506103ef610eab565b6040516103fd92919061357e565b60405180910390f35b34801561041257600080fd5b5061042d600480360381019061042891906135fa565b610ee6565b60405161043a919061363a565b60405180910390f35b34801561044f57600080fd5b5061046a6004803603810190610465919061347a565b610f6c565b60405161047791906134e8565b60405180910390f35b34801561048c57600080fd5b506104a760048036038101906104a2919061347a565b610ff3565b6040516104b491906139b7565b60405180910390f35b3480156104c957600080fd5b506104e460048036038101906104df91906139d9565b6110b6565b6040516104f1919061363a565b60405180910390f35b34801561050657600080fd5b5061050f61116e565b005b34801561051d57600080fd5b50610538600480360381019061053391906135fa565b611182565b005b34801561054657600080fd5b50610561600480360381019061055c9190613a7a565b6113ac565b005b34801561056f57600080fd5b5061058a6004803603810190610585919061347a565b6113f2565b604051610597919061363a565b60405180910390f35b3480156105ac57600080fd5b506105c760048036038101906105c29190613aba565b611466565b005b3480156105d557600080fd5b506105de6115c6565b6040516105eb91906134e8565b60405180910390f35b34801561060057600080fd5b506106096115f0565b6040516106169190613422565b60405180910390f35b34801561062b57600080fd5b50610634611682565b604051610641919061363a565b60405180910390f35b34801561065657600080fd5b50610671600480360381019061066c9190613b0d565b61168c565b005b34801561067f57600080fd5b5061069a6004803603810190610695919061347a565b6116e0565b6040516106a7919061363a565b60405180910390f35b3480156106bc57600080fd5b506106d760048036038101906106d29190613b79565b61171b565b005b3480156106e557600080fd5b5061070060048036038101906106fb919061347a565b611731565b005b34801561070e57600080fd5b5061072960048036038101906107249190613c5a565b6119eb565b005b34801561073757600080fd5b50610752600480360381019061074d9190613aba565b611a4d565b005b34801561076057600080fd5b5061077b6004803603810190610776919061347a565b611bfa565b6040516107889190613422565b60405180910390f35b34801561079d57600080fd5b506107a6611d0d565b6040516107b492919061357e565b60405180910390f35b3480156107c957600080fd5b506107e460048036038101906107df9190613cdd565b611d48565b6040516107f1919061336e565b60405180910390f35b34801561080657600080fd5b50610821600480360381019061081c9190613a7a565b611ddc565b005b61083d6004803603810190610838919061347a565b611e22565b005b34801561084b57600080fd5b50610866600480360381019061086191906139d9565b611f8c565b005b34801561087457600080fd5b5061088f600480360381019061088a919061347a565b612010565b60405161089c919061363a565b60405180910390f35b3480156108b157600080fd5b506108ba61202d565b6040516108c7919061363a565b60405180910390f35b60007f80ac58cd000000000000000000000000000000000000000000000000000000007bffffffffffffffffffffffffffffffffffffffffffffffffffffffff1916827bffffffffffffffffffffffffffffffffffffffffffffffffffffffff1916148061099b57507f5b5e139f000000000000000000000000000000000000000000000000000000007bffffffffffffffffffffffffffffffffffffffffffffffffffffffff1916827bffffffffffffffffffffffffffffffffffffffffffffffffffffffff1916145b806109ab57506109aa8261203e565b5b9050919050565b6060600080546109c190613d4c565b80601f01602080910402602001604051908101604052809291908181526020018280546109ed90613d4c565b8015610a3a5780601f10610a0f57610100808354040283529160200191610a3a565b820191906000526020600020905b815481529060010190602001808311610a1d57829003601f168201915b5050505050905090565b6000610a4f826120a8565b6004600083815260200190815260200160002060009054906101000a900473ffffffffffffffffffffffffffffffffffffffff169050919050565b6000610a9582610f6c565b90508073ffffffffffffffffffffffffffffffffffffffff168373ffffffffffffffffffffffffffffffffffffffff161415610b06576040517f08c379a0000000000000000000000000000000000000000000000000000000008152600401610afd90613df0565b60405180910390fd5b8073ffffffffffffffffffffffffffffffffffffffff16610b256120f3565b73ffffffffffffffffffffffffffffffffffffffff161480610b545750610b5381610b4e6120f3565b611d48565b5b610b93576040517f08c379a0000000000000000000000000000000000000000000000000000000008152600401610b8a90613e82565b60405180910390fd5b610b9d83836120fb565b505050565b600080601160099054906101000a900460ff16601160089054906101000a900460ff168160ff1691508060ff169050915091509091565b610bea610be46120f3565b826121b4565b610c29576040517f08c379a0000000000000000000000000000000000000000000000000000000008152600401610c2090613f14565b60405180910390fd5b610c34838383612249565b505050565b600080600d6000848152602001908152602001600020805490501115610dd65781831415610ce557600c6000848152602001908152602001600020600084815260200190815260200160002054601160089054906101000a900460ff1660ff16601160099054906101000a900460ff1660ff16600a600087815260200190815260200160002054610cca9190613f63565b610cd49190613fec565b610cde919061401d565b9050610df3565b6000601160089054906101000a900460ff1660ff16601160099054906101000a900460ff16601160089054906101000a900460ff16610d249190614051565b60ff16600a600086815260200190815260200160002054610d459190613f63565b610d4f9190613fec565b9050600c6000858152602001908152602001600020600084815260200190815260200160002054600f600085815260200190815260200160002054600e600086815260200190815260200160002060008781526020019081526020016000205483610dba9190613f63565b610dc49190613fec565b610dce919061401d565b915050610df3565b81831415610dee57610de7826116e0565b9050610df3565b600090505b92915050565b610e14838383604051806020016040528060008152506119eb565b505050565b60008151835114610e5f576040517f08c379a0000000000000000000000000000000000000000000000000000000008152600401610e56906140f7565b60405180910390fd5b6000610e6b6009612543565b9050610e776009612551565b610e813382612567565b610e8b8186612785565b610e9581856127f9565b610ea08185856128aa565b809150509392505050565b600080601160079054906101000a900460ff16601160049054906101000a900462ffffff168160ff1691508062ffffff169050915091509091565b6000808310158015610f005750610efd6009612543565b83105b610f3f576040517f08c379a0000000000000000000000000000000000000000000000000000000008152600401610f3690614163565b60405180910390fd5b600e6000848152602001908152602001600020600083815260200190815260200160002054905092915050565b600080610f788361296e565b9050600073ffffffffffffffffffffffffffffffffffffffff168173ffffffffffffffffffffffffffffffffffffffff161415610fea576040517f08c379a0000000000000000000000000000000000000000000000000000000008152600401610fe1906141cf565b60405180910390fd5b80915050919050565b60606000821015801561100e575061100b6009612543565b82105b61104d576040517f08c379a000000000000000000000000000000000000000000000000000000000815260040161104490614163565b60405180910390fd5b600d60008381526020019081526020016000208054806020026020016040519081016040528092919081815260200182805480156110aa57602002820191906000526020600020905b815481526020019060010190808311611096575b50505050509050919050565b60008073ffffffffffffffffffffffffffffffffffffffff168273ffffffffffffffffffffffffffffffffffffffff161415611127576040517f08c379a000000000000000000000000000000000000000000000000000000000815260040161111e90614261565b60405180910390fd5b600360008373ffffffffffffffffffffffffffffffffffffffff1673ffffffffffffffffffffffffffffffffffffffff168152602001908152602001600020549050919050565b6111766129ab565b6111806000612a29565b565b61118a612aef565b60006111968383610c39565b9050600081116111db576040517f08c379a00000000000000000000000000000000000000000000000000000000081526004016111d2906142f3565b60405180910390fd5b6000601160009054906101000a900462ffffff1662ffffff16601160039054906101000a900460ff1660ff16836112129190613f63565b61121c9190613fec565b905082847fa7116c38c2fc13dbd2d57ce586bb24784466a4b1f54b8f2676b220044a26f55d8460405161124f919061363a565b60405180910390a381600b6000858152602001908152602001600020600082825461127a9190614313565b9250508190555081600c6000868152602001908152602001600020600085815260200190815260200160002060008282546112b59190614313565b9250508190555080826112c8919061401d565b600a600086815260200190815260200160002060008282546112ea9190614313565b9250508190555060003373ffffffffffffffffffffffffffffffffffffffff16826040516113179061439a565b60006040518083038185875af1925050503d8060008114611354576040519150601f19603f3d011682016040523d82523d6000602084013e611359565b606091505b505090508061139d576040517f08c379a000000000000000000000000000000000000000000000000000000000815260040161139490614421565b60405180910390fd5b5050506113a8612b3f565b5050565b6113b46129ab565b81601160046101000a81548162ffffff021916908362ffffff16021790555080601160076101000a81548160ff021916908360ff1602179055505050565b600080821015801561140c57506114096009612543565b82105b61144b576040517f08c379a000000000000000000000000000000000000000000000000000000000815260040161144290614163565b60405180910390fd5b600f6000838152602001908152602001600020549050919050565b6000831015801561147f575061147c6009612543565b83105b6114be576040517f08c379a00000000000000000000000000000000000000000000000000000000081526004016114b59061448d565b60405180910390fd5b6114c78361296e565b73ffffffffffffffffffffffffffffffffffffffff163373ffffffffffffffffffffffffffffffffffffffff1614611534576040517f08c379a000000000000000000000000000000000000000000000000000000000815260040161152b9061451f565b60405180910390fd5b600d600084815260200190815260200160002082908060018154018082558091505060019003906000526020600020016000909190919091505580600f600085815260200190815260200160002060008282546115919190614313565b9250508190555080600e6000858152602001908152602001600020600084815260200190815260200160002081905550505050565b6000600860009054906101000a900473ffffffffffffffffffffffffffffffffffffffff16905090565b6060600180546115ff90613d4c565b80601f016020809104026020016040519081016040528092919081815260200182805461162b90613d4c565b80156116785780601f1061164d57610100808354040283529160200191611678565b820191906000526020600020905b81548152906001019060200180831161165b57829003601f168201915b5050505050905090565b6000601054905090565b6116946129ab565b8060ff168260ff16116116a657600080fd5b81601160086101000a81548160ff021916908360ff16021790555080601160096101000a81548160ff021916908360ff1602179055505050565b6000600b600083815260200190815260200160002054600a600084815260200190815260200160002054611714919061401d565b9050919050565b61172d6117266120f3565b8383612b49565b5050565b611739612aef565b60006117458283610c39565b90506000811161178a576040517f08c379a0000000000000000000000000000000000000000000000000000000008152600401611781906145b1565b60405180910390fd5b6000601160009054906101000a900462ffffff1662ffffff16601160039054906101000a900460ff1660ff16836117c19190613f63565b6117cb9190613fec565b905082837fa7116c38c2fc13dbd2d57ce586bb24784466a4b1f54b8f2676b220044a26f55d846040516117fe919061363a565b60405180910390a381600b600085815260200190815260200160002060008282546118299190614313565b9250508190555081600c6000858152602001908152602001600020600085815260200190815260200160002060008282546118649190614313565b92505081905550600061187684610f6c565b905060008173ffffffffffffffffffffffffffffffffffffffff16838561189d919061401d565b6040516118a99061439a565b60006040518083038185875af1925050503d80600081146118e6576040519150601f19603f3d011682016040523d82523d6000602084013e6118eb565b606091505b505090508061192f576040517f08c379a00000000000000000000000000000000000000000000000000000000081526004016119269061461d565b60405180910390fd5b60003373ffffffffffffffffffffffffffffffffffffffff16846040516119559061439a565b60006040518083038185875af1925050503d8060008114611992576040519150601f19603f3d011682016040523d82523d6000602084013e611997565b606091505b50509050806119db576040517f08c379a00000000000000000000000000000000000000000000000000000000081526004016119d290614421565b60405180910390fd5b50505050506119e8612b3f565b50565b6119fc6119f66120f3565b836121b4565b611a3b576040517f08c379a0000000000000000000000000000000000000000000000000000000008152600401611a3290613f14565b60405180910390fd5b611a4784848484612cb6565b50505050565b60008310158015611a665750611a636009612543565b83105b611aa5576040517f08c379a0000000000000000000000000000000000000000000000000000000008152600401611a9c9061448d565b60405180910390fd5b611aae8361296e565b73ffffffffffffffffffffffffffffffffffffffff163373ffffffffffffffffffffffffffffffffffffffff1614611b1b576040517f08c379a0000000000000000000000000000000000000000000000000000000008152600401611b12906146af565b60405180910390fd5b600e6000848152602001908152602001600020600083815260200190815260200160002054600f60008581526020019081526020016000206000828254611b62919061401d565b9250508190555080600e600085815260200190815260200160002060008481526020019081526020016000208190555080600f60008581526020019081526020016000206000828254611bb59190614313565b9250508190555081837ff81b1f9d8b5d36a5a67d13006a8b091a9b63e2a38b331d315d99c6daefd2ddcc83604051611bed919061363a565b60405180910390a3505050565b6060611c05826120a8565b6000600660008481526020019081526020016000208054611c2590613d4c565b80601f0160208091040260200160405190810160405280929190818152602001828054611c5190613d4c565b8015611c9e5780601f10611c7357610100808354040283529160200191611c9e565b820191906000526020600020905b815481529060010190602001808311611c8157829003601f168201915b505050505090506000611caf612d12565b9050600081511415611cc5578192505050611d08565b600082511115611cfa578082604051602001611ce292919061470b565b60405160208183030381529060405292505050611d08565b611d0384612d29565b925050505b919050565b600080601160039054906101000a900460ff16601160009054906101000a900462ffffff168160ff1691508062ffffff169050915091509091565b6000600560008473ffffffffffffffffffffffffffffffffffffffff1673ffffffffffffffffffffffffffffffffffffffff16815260200190815260200160002060008373ffffffffffffffffffffffffffffffffffffffff1673ffffffffffffffffffffffffffffffffffffffff16815260200190815260200160002060009054906101000a900460ff16905092915050565b611de46129ab565b81601160006101000a81548162ffffff021916908362ffffff16021790555080601160036101000a81548160ff021916908360ff1602179055505050565b611e2a612aef565b60008110158015611e435750611e406009612543565b81105b611e82576040517f08c379a0000000000000000000000000000000000000000000000000000000008152600401611e799061448d565b60405180910390fd5b6000601160049054906101000a900462ffffff1662ffffff16601160079054906101000a900460ff1660ff1634611eb99190613f63565b611ec39190613fec565b9050611ef68134611ed4919061401d565b600a600085815260200190815260200160002054612d9190919063ffffffff16565b600a600084815260200190815260200160002081905550813373ffffffffffffffffffffffffffffffffffffffff167f106aac375bbcf013d1e52338bbf9e740009a1a3a6869f8daa1b72aa1620f5fec8334611f52919061401d565b604051611f5f919061363a565b60405180910390a38060106000828254611f799190614313565b9250508190555050611f89612b3f565b50565b611f946129ab565b600073ffffffffffffffffffffffffffffffffffffffff168173ffffffffffffffffffffffffffffffffffffffff161415612004576040517f08c379a0000000000000000000000000000000000000000000000000000000008152600401611ffb906147a1565b60405180910390fd5b61200d81612a29565b50565b6000600a6000838152602001908152602001600020549050919050565b60006120396009612543565b905090565b60007f01ffc9a7000000000000000000000000000000000000000000000000000000007bffffffffffffffffffffffffffffffffffffffffffffffffffffffff1916827bffffffffffffffffffffffffffffffffffffffffffffffffffffffff1916149050919050565b6120b181612da7565b6120f0576040517f08c379a00000000000000000000000000000000000000000000000000000000081526004016120e7906141cf565b60405180910390fd5b50565b600033905090565b816004600083815260200190815260200160002060006101000a81548173ffffffffffffffffffffffffffffffffffffffff021916908373ffffffffffffffffffffffffffffffffffffffff160217905550808273ffffffffffffffffffffffffffffffffffffffff1661216e83610f6c565b73ffffffffffffffffffffffffffffffffffffffff167f8c5be1e5ebec7d5bd14f71427d1e84f3dd0314c0f7b2291e5b200ac8c7c3b92560405160405180910390a45050565b6000806121c083610f6c565b90508073ffffffffffffffffffffffffffffffffffffffff168473ffffffffffffffffffffffffffffffffffffffff16148061220257506122018185611d48565b5b8061224057508373ffffffffffffffffffffffffffffffffffffffff1661222884610a44565b73ffffffffffffffffffffffffffffffffffffffff16145b91505092915050565b8273ffffffffffffffffffffffffffffffffffffffff1661226982610f6c565b73ffffffffffffffffffffffffffffffffffffffff16146122bf576040517f08c379a00000000000000000000000000000000000000000000000000000000081526004016122b690614833565b60405180910390fd5b600073ffffffffffffffffffffffffffffffffffffffff168273ffffffffffffffffffffffffffffffffffffffff16141561232f576040517f08c379a0000000000000000000000000000000000000000000000000000000008152600401612326906148c5565b60405180910390fd5b61233c8383836001612de8565b8273ffffffffffffffffffffffffffffffffffffffff1661235c82610f6c565b73ffffffffffffffffffffffffffffffffffffffff16146123b2576040517f08c379a00000000000000000000000000000000000000000000000000000000081526004016123a990614833565b60405180910390fd5b6004600082815260200190815260200160002060006101000a81549073ffffffffffffffffffffffffffffffffffffffff02191690556001600360008573ffffffffffffffffffffffffffffffffffffffff1673ffffffffffffffffffffffffffffffffffffffff168152602001908152602001600020600082825403925050819055506001600360008473ffffffffffffffffffffffffffffffffffffffff1673ffffffffffffffffffffffffffffffffffffffff16815260200190815260200160002060008282540192505081905550816002600083815260200190815260200160002060006101000a81548173ffffffffffffffffffffffffffffffffffffffff021916908373ffffffffffffffffffffffffffffffffffffffff160217905550808273ffffffffffffffffffffffffffffffffffffffff168473ffffffffffffffffffffffffffffffffffffffff167fddf252ad1be2c89b69c2b068fc378daa952ba7f163c4a11628f55a4df523b3ef60405160405180910390a461253e8383836001612dee565b505050565b600081600001549050919050565b6001816000016000828254019250508190555050565b600073ffffffffffffffffffffffffffffffffffffffff168273ffffffffffffffffffffffffffffffffffffffff1614156125d7576040517f08c379a00000000000000000000000000000000000000000000000000000000081526004016125ce90614931565b60405180910390fd5b6125e081612da7565b15612620576040517f08c379a00000000000000000000000000000000000000000000000000000000081526004016126179061499d565b60405180910390fd5b61262e600083836001612de8565b61263781612da7565b15612677576040517f08c379a000000000000000000000000000000000000000000000000000000000815260040161266e9061499d565b60405180910390fd5b6001600360008473ffffffffffffffffffffffffffffffffffffffff1673ffffffffffffffffffffffffffffffffffffffff16815260200190815260200160002060008282540192505081905550816002600083815260200190815260200160002060006101000a81548173ffffffffffffffffffffffffffffffffffffffff021916908373ffffffffffffffffffffffffffffffffffffffff160217905550808273ffffffffffffffffffffffffffffffffffffffff16600073ffffffffffffffffffffffffffffffffffffffff167fddf252ad1be2c89b69c2b068fc378daa952ba7f163c4a11628f55a4df523b3ef60405160405180910390a4612781600083836001612dee565b5050565b61278e82612da7565b6127cd576040517f08c379a00000000000000000000000000000000000000000000000000000000081526004016127c490614a2f565b60405180910390fd5b806006600084815260200190815260200160002090805190602001906127f49291906131ca565b505050565b60005b815181101561287d5761280f6009612543565b82828151811061282257612821614a4f565b5b60200260200101511061286a576040517f08c379a000000000000000000000000000000000000000000000000000000000815260040161286190614af0565b60405180910390fd5b808061287590614b10565b9150506127fc565b81600d600085815260200190815260200160002090805190602001906128a4929190613250565b50505050565b6000805b835181101561294f578281815181106128ca576128c9614a4f565b5b6020026020010151600e600087815260200190815260200160002060008684815181106128fa576128f9614a4f565b5b602002602001015181526020019081526020016000208190555082818151811061292757612926614a4f565b5b60200260200101518261293a9190614313565b9150808061294790614b10565b9150506128ae565b5080600f60008681526020019081526020016000208190555050505050565b60006002600083815260200190815260200160002060009054906101000a900473ffffffffffffffffffffffffffffffffffffffff169050919050565b6129b36120f3565b73ffffffffffffffffffffffffffffffffffffffff166129d16115c6565b73ffffffffffffffffffffffffffffffffffffffff1614612a27576040517f08c379a0000000000000000000000000000000000000000000000000000000008152600401612a1e90614ba5565b60405180910390fd5b565b6000600860009054906101000a900473ffffffffffffffffffffffffffffffffffffffff16905081600860006101000a81548173ffffffffffffffffffffffffffffffffffffffff021916908373ffffffffffffffffffffffffffffffffffffffff1602179055508173ffffffffffffffffffffffffffffffffffffffff168173ffffffffffffffffffffffffffffffffffffffff167f8be0079c531659141344cd1fd0a4f28419497f9722a3daafe3b4186f6b6457e060405160405180910390a35050565b60026007541415612b35576040517f08c379a0000000000000000000000000000000000000000000000000000000008152600401612b2c90614c11565b60405180910390fd5b6002600781905550565b6001600781905550565b8173ffffffffffffffffffffffffffffffffffffffff168373ffffffffffffffffffffffffffffffffffffffff161415612bb8576040517f08c379a0000000000000000000000000000000000000000000000000000000008152600401612baf90614c7d565b60405180910390fd5b80600560008573ffffffffffffffffffffffffffffffffffffffff1673ffffffffffffffffffffffffffffffffffffffff16815260200190815260200160002060008473ffffffffffffffffffffffffffffffffffffffff1673ffffffffffffffffffffffffffffffffffffffff16815260200190815260200160002060006101000a81548160ff0219169083151502179055508173ffffffffffffffffffffffffffffffffffffffff168373ffffffffffffffffffffffffffffffffffffffff167f17307eab39ab6107e8899845ad3d59bd9653f200f220920489ca2b5937696c3183604051612ca9919061336e565b60405180910390a3505050565b612cc1848484612249565b612ccd84848484612df4565b612d0c576040517f08c379a0000000000000000000000000000000000000000000000000000000008152600401612d0390614d0f565b60405180910390fd5b50505050565b606060405180602001604052806000815250905090565b6060612d34826120a8565b6000612d3e612d12565b90506000815111612d5e5760405180602001604052806000815250612d89565b80612d6884612f7c565b604051602001612d7992919061470b565b6040516020818303038152906040525b915050919050565b60008183612d9f9190614313565b905092915050565b60008073ffffffffffffffffffffffffffffffffffffffff16612dc98361296e565b73ffffffffffffffffffffffffffffffffffffffff1614159050919050565b50505050565b50505050565b6000612e158473ffffffffffffffffffffffffffffffffffffffff16613054565b15612f6f578373ffffffffffffffffffffffffffffffffffffffff1663150b7a02612e3e6120f3565b8786866040518563ffffffff1660e01b8152600401612e609493929190614d84565b6020604051808303816000875af1925050508015612e9c57506040513d601f19601f82011682018060405250810190612e999190614de5565b60015b612f1f573d8060008114612ecc576040519150601f19603f3d011682016040523d82523d6000602084013e612ed1565b606091505b50600081511415612f17576040517f08c379a0000000000000000000000000000000000000000000000000000000008152600401612f0e90614d0f565b60405180910390fd5b805181602001fd5b63150b7a0260e01b7bffffffffffffffffffffffffffffffffffffffffffffffffffffffff1916817bffffffffffffffffffffffffffffffffffffffffffffffffffffffff191614915050612f74565b600190505b949350505050565b606060006001612f8b84613077565b01905060008167ffffffffffffffff811115612faa57612fa961365f565b5b6040519080825280601f01601f191660200182016040528015612fdc5781602001600182028036833780820191505090505b509050600082602001820190505b600115613049578080600190039150507f3031323334353637383961626364656600000000000000000000000000000000600a86061a8153600a858161303357613032613fbd565b5b049450600085141561304457613049565b612fea565b819350505050919050565b6000808273ffffffffffffffffffffffffffffffffffffffff163b119050919050565b600080600090507a184f03e93ff9f4daa797ed6e38ed64bf6a1f01000000000000000083106130d5577a184f03e93ff9f4daa797ed6e38ed64bf6a1f01000000000000000083816130cb576130ca613fbd565b5b0492506040810190505b6d04ee2d6d415b85acef81000000008310613112576d04ee2d6d415b85acef8100000000838161310857613107613fbd565b5b0492506020810190505b662386f26fc10000831061314157662386f26fc10000838161313757613136613fbd565b5b0492506010810190505b6305f5e100831061316a576305f5e10083816131605761315f613fbd565b5b0492506008810190505b612710831061318f57612710838161318557613184613fbd565b5b0492506004810190505b606483106131b257606483816131a8576131a7613fbd565b5b0492506002810190505b600a83106131c1576001810190505b80915050919050565b8280546131d690613d4c565b90600052602060002090601f0160209004810192826131f8576000855561323f565b82601f1061321157805160ff191683800117855561323f565b8280016001018555821561323f579182015b8281111561323e578251825591602001919060010190613223565b5b50905061324c919061329d565b5090565b82805482825590600052602060002090810192821561328c579160200282015b8281111561328b578251825591602001919060010190613270565b5b509050613299919061329d565b5090565b5b808211156132b657600081600090555060010161329e565b5090565b6000604051905090565b600080fd5b600080fd5b60007fffffffff0000000000000000000000000000000000000000000000000000000082169050919050565b613303816132ce565b811461330e57600080fd5b50565b600081359050613320816132fa565b92915050565b60006020828403121561333c5761333b6132c4565b5b600061334a84828501613311565b91505092915050565b60008115159050919050565b61336881613353565b82525050565b6000602082019050613383600083018461335f565b92915050565b600081519050919050565b600082825260208201905092915050565b60005b838110156133c35780820151818401526020810190506133a8565b838111156133d2576000848401525b50505050565b6000601f19601f8301169050919050565b60006133f482613389565b6133fe8185613394565b935061340e8185602086016133a5565b613417816133d8565b840191505092915050565b6000602082019050818103600083015261343c81846133e9565b905092915050565b6000819050919050565b61345781613444565b811461346257600080fd5b50565b6000813590506134748161344e565b92915050565b6000602082840312156134905761348f6132c4565b5b600061349e84828501613465565b91505092915050565b600073ffffffffffffffffffffffffffffffffffffffff82169050919050565b60006134d2826134a7565b9050919050565b6134e2816134c7565b82525050565b60006020820190506134fd60008301846134d9565b92915050565b61350c816134c7565b811461351757600080fd5b50565b60008135905061352981613503565b92915050565b60008060408385031215613546576135456132c4565b5b60006135548582860161351a565b925050602061356585828601613465565b9150509250929050565b61357881613444565b82525050565b6000604082019050613593600083018561356f565b6135a0602083018461356f565b9392505050565b6000806000606084860312156135c0576135bf6132c4565b5b60006135ce8682870161351a565b93505060206135df8682870161351a565b92505060406135f086828701613465565b9150509250925092565b60008060408385031215613611576136106132c4565b5b600061361f85828601613465565b925050602061363085828601613465565b9150509250929050565b600060208201905061364f600083018461356f565b92915050565b600080fd5b600080fd5b7f4e487b7100000000000000000000000000000000000000000000000000000000600052604160045260246000fd5b613697826133d8565b810181811067ffffffffffffffff821117156136b6576136b561365f565b5b80604052505050565b60006136c96132ba565b90506136d5828261368e565b919050565b600067ffffffffffffffff8211156136f5576136f461365f565b5b6136fe826133d8565b9050602081019050919050565b82818337600083830152505050565b600061372d613728846136da565b6136bf565b9050828152602081018484840111156137495761374861365a565b5b61375484828561370b565b509392505050565b600082601f83011261377157613770613655565b5b813561378184826020860161371a565b91505092915050565b600067ffffffffffffffff8211156137a5576137a461365f565b5b602082029050602081019050919050565b600080fd5b60006137ce6137c98461378a565b6136bf565b905080838252602082019050602084028301858111156137f1576137f06137b6565b5b835b8181101561381a57806138068882613465565b8452602084019350506020810190506137f3565b5050509392505050565b600082601f83011261383957613838613655565b5b81356138498482602086016137bb565b91505092915050565b60008060006060848603121561386b5761386a6132c4565b5b600084013567ffffffffffffffff811115613889576138886132c9565b5b6138958682870161375c565b935050602084013567ffffffffffffffff8111156138b6576138b56132c9565b5b6138c286828701613824565b925050604084013567ffffffffffffffff8111156138e3576138e26132c9565b5b6138ef86828701613824565b9150509250925092565b600081519050919050565b600082825260208201905092915050565b6000819050602082019050919050565b61392e81613444565b82525050565b60006139408383613925565b60208301905092915050565b6000602082019050919050565b6000613964826138f9565b61396e8185613904565b935061397983613915565b8060005b838110156139aa5781516139918882613934565b975061399c8361394c565b92505060018101905061397d565b5085935050505092915050565b600060208201905081810360008301526139d18184613959565b905092915050565b6000602082840312156139ef576139ee6132c4565b5b60006139fd8482850161351a565b91505092915050565b600062ffffff82169050919050565b613a1e81613a06565b8114613a2957600080fd5b50565b600081359050613a3b81613a15565b92915050565b600060ff82169050919050565b613a5781613a41565b8114613a6257600080fd5b50565b600081359050613a7481613a4e565b92915050565b60008060408385031215613a9157613a906132c4565b5b6000613a9f85828601613a2c565b9250506020613ab085828601613a65565b9150509250929050565b600080600060608486031215613ad357613ad26132c4565b5b6000613ae186828701613465565b9350506020613af286828701613465565b9250506040613b0386828701613465565b9150509250925092565b60008060408385031215613b2457613b236132c4565b5b6000613b3285828601613a65565b9250506020613b4385828601613a65565b9150509250929050565b613b5681613353565b8114613b6157600080fd5b50565b600081359050613b7381613b4d565b92915050565b60008060408385031215613b9057613b8f6132c4565b5b6000613b9e8582860161351a565b9250506020613baf85828601613b64565b9150509250929050565b600067ffffffffffffffff821115613bd457613bd361365f565b5b613bdd826133d8565b9050602081019050919050565b6000613bfd613bf884613bb9565b6136bf565b905082815260208101848484011115613c1957613c1861365a565b5b613c2484828561370b565b509392505050565b600082601f830112613c4157613c40613655565b5b8135613c51848260208601613bea565b91505092915050565b60008060008060808587031215613c7457613c736132c4565b5b6000613c828782880161351a565b9450506020613c938782880161351a565b9350506040613ca487828801613465565b925050606085013567ffffffffffffffff811115613cc557613cc46132c9565b5b613cd187828801613c2c565b91505092959194509250565b60008060408385031215613cf457613cf36132c4565b5b6000613d028582860161351a565b9250506020613d138582860161351a565b9150509250929050565b7f4e487b7100000000000000000000000000000000000000000000000000000000600052602260045260246000fd5b60006002820490506001821680613d6457607f821691505b60208210811415613d7857613d77613d1d565b5b50919050565b7f4552433732313a20617070726f76616c20746f2063757272656e74206f776e6560008201527f7200000000000000000000000000000000000000000000000000000000000000602082015250565b6000613dda602183613394565b9150613de582613d7e565b604082019050919050565b60006020820190508181036000830152613e0981613dcd565b9050919050565b7f4552433732313a20617070726f76652063616c6c6572206973206e6f7420746f60008201527f6b656e206f776e6572206f7220617070726f76656420666f7220616c6c000000602082015250565b6000613e6c603d83613394565b9150613e7782613e10565b604082019050919050565b60006020820190508181036000830152613e9b81613e5f565b9050919050565b7f4552433732313a2063616c6c6572206973206e6f7420746f6b656e206f776e6560008201527f72206f7220617070726f76656400000000000000000000000000000000000000602082015250565b6000613efe602d83613394565b9150613f0982613ea2565b604082019050919050565b60006020820190508181036000830152613f2d81613ef1565b9050919050565b7f4e487b7100000000000000000000000000000000000000000000000000000000600052601160045260246000fd5b6000613f6e82613444565b9150613f7983613444565b9250817fffffffffffffffffffffffffffffffffffffffffffffffffffffffffffffffff0483118215151615613fb257613fb1613f34565b5b828202905092915050565b7f4e487b7100000000000000000000000000000000000000000000000000000000600052601260045260246000fd5b6000613ff782613444565b915061400283613444565b92508261401257614011613fbd565b5b828204905092915050565b600061402882613444565b915061403383613444565b92508282101561404657614045613f34565b5b828203905092915050565b600061405c82613a41565b915061406783613a41565b92508282101561407a57614079613f34565b5b828203905092915050565b7f6c656e677468206f6620646570656e64656e6369657320616e6420736861726560008201527f73206c6973747320646f6573206e6f74206d6174636820000000000000000000602082015250565b60006140e1603783613394565b91506140ec82614085565b604082019050919050565b60006020820190508181036000830152614110816140d4565b9050919050565b7f656e74657220612076616c696420746f6b656e20496400000000000000000000600082015250565b600061414d601683613394565b915061415882614117565b602082019050919050565b6000602082019050818103600083015261417c81614140565b9050919050565b7f4552433732313a20696e76616c696420746f6b656e2049440000000000000000600082015250565b60006141b9601883613394565b91506141c482614183565b602082019050919050565b600060208201905081810360008301526141e8816141ac565b9050919050565b7f4552433732313a2061646472657373207a65726f206973206e6f74206120766160008201527f6c6964206f776e65720000000000000000000000000000000000000000000000602082015250565b600061424b602983613394565b9150614256826141ef565b604082019050919050565b6000602082019050818103600083015261427a8161423e565b9050919050565b7f546865726520617265206e6f2066756e647320746f20626520636c61696d656460008201527f20746f207468697320646570656e64656e637900000000000000000000000000602082015250565b60006142dd603383613394565b91506142e882614281565b604082019050919050565b6000602082019050818103600083015261430c816142d0565b9050919050565b600061431e82613444565b915061432983613444565b9250827fffffffffffffffffffffffffffffffffffffffffffffffffffffffffffffffff0382111561435e5761435d613f34565b5b828201905092915050565b600081905092915050565b50565b6000614384600083614369565b915061438f82614374565b600082019050919050565b60006143a582614377565b9150819050919050565b7f5472616e73666572206f6620636c61696d657227732066756e6473206661696c60008201527f6564000000000000000000000000000000000000000000000000000000000000602082015250565b600061440b602283613394565b9150614416826143af565b604082019050919050565b6000602082019050818103600083015261443a816143fe565b9050919050565b7f546f6b656e20646f6573206e6f742065786973742e0000000000000000000000600082015250565b6000614477601583613394565b915061448282614441565b602082019050919050565b600060208201905081810360008301526144a68161446a565b9050919050565b7f6f6e6c79206f776e6572206f662074686520746f6b656e2063616e206164642060008201527f646570656e64656e636965732000000000000000000000000000000000000000602082015250565b6000614509602d83613394565b9150614514826144ad565b604082019050919050565b60006020820190508181036000830152614538816144fc565b9050919050565b7f546865726520617265206e6f2066756e647320746f20626520636c61696d656460008201527f20666f7220746865206f776e6572000000000000000000000000000000000000602082015250565b600061459b602e83613394565b91506145a68261453f565b604082019050919050565b600060208201905081810360008301526145ca8161458e565b9050919050565b7f5472616e73666572206f66206f776e657227732066756e6473206661696c6564600082015250565b6000614607602083613394565b9150614612826145d1565b602082019050919050565b60006020820190508181036000830152614636816145fa565b9050919050565b7f6f6e6c79206f776e6572206f662074686520746f6b656e2063616e206368616e60008201527f6765207368617265732000000000000000000000000000000000000000000000602082015250565b6000614699602a83613394565b91506146a48261463d565b604082019050919050565b600060208201905081810360008301526146c88161468c565b9050919050565b600081905092915050565b60006146e582613389565b6146ef81856146cf565b93506146ff8185602086016133a5565b80840191505092915050565b600061471782856146da565b915061472382846146da565b91508190509392505050565b7f4f776e61626c653a206e6577206f776e657220697320746865207a65726f206160008201527f6464726573730000000000000000000000000000000000000000000000000000602082015250565b600061478b602683613394565b91506147968261472f565b604082019050919050565b600060208201905081810360008301526147ba8161477e565b9050919050565b7f4552433732313a207472616e736665722066726f6d20696e636f72726563742060008201527f6f776e6572000000000000000000000000000000000000000000000000000000602082015250565b600061481d602583613394565b9150614828826147c1565b604082019050919050565b6000602082019050818103600083015261484c81614810565b9050919050565b7f4552433732313a207472616e7366657220746f20746865207a65726f2061646460008201527f7265737300000000000000000000000000000000000000000000000000000000602082015250565b60006148af602483613394565b91506148ba82614853565b604082019050919050565b600060208201905081810360008301526148de816148a2565b9050919050565b7f4552433732313a206d696e7420746f20746865207a65726f2061646472657373600082015250565b600061491b602083613394565b9150614926826148e5565b602082019050919050565b6000602082019050818103600083015261494a8161490e565b9050919050565b7f4552433732313a20746f6b656e20616c7265616479206d696e74656400000000600082015250565b6000614987601c83613394565b915061499282614951565b602082019050919050565b600060208201905081810360008301526149b68161497a565b9050919050565b7f45524337323155524953746f726167653a2055524920736574206f66206e6f6e60008201527f6578697374656e7420746f6b656e000000000000000000000000000000000000602082015250565b6000614a19602e83613394565b9150614a24826149bd565b604082019050919050565b60006020820190508181036000830152614a4881614a0c565b9050919050565b7f4e487b7100000000000000000000000000000000000000000000000000000000600052603260045260246000fd5b7f496e76616c696420746f6b656e496420696e20646570656e64656e636965732060008201527f656e747279000000000000000000000000000000000000000000000000000000602082015250565b6000614ada602583613394565b9150614ae582614a7e565b604082019050919050565b60006020820190508181036000830152614b0981614acd565b9050919050565b6000614b1b82613444565b91507fffffffffffffffffffffffffffffffffffffffffffffffffffffffffffffffff821415614b4e57614b4d613f34565b5b600182019050919050565b7f4f776e61626c653a2063616c6c6572206973206e6f7420746865206f776e6572600082015250565b6000614b8f602083613394565b9150614b9a82614b59565b602082019050919050565b60006020820190508181036000830152614bbe81614b82565b9050919050565b7f5265656e7472616e637947756172643a207265656e7472616e742063616c6c00600082015250565b6000614bfb601f83613394565b9150614c0682614bc5565b602082019050919050565b60006020820190508181036000830152614c2a81614bee565b9050919050565b7f4552433732313a20617070726f766520746f2063616c6c657200000000000000600082015250565b6000614c67601983613394565b9150614c7282614c31565b602082019050919050565b60006020820190508181036000830152614c9681614c5a565b9050919050565b7f4552433732313a207472616e7366657220746f206e6f6e20455243373231526560008201527f63656976657220696d706c656d656e7465720000000000000000000000000000602082015250565b6000614cf9603283613394565b9150614d0482614c9d565b604082019050919050565b60006020820190508181036000830152614d2881614cec565b9050919050565b600081519050919050565b600082825260208201905092915050565b6000614d5682614d2f565b614d608185614d3a565b9350614d708185602086016133a5565b614d79816133d8565b840191505092915050565b6000608082019050614d9960008301876134d9565b614da660208301866134d9565b614db3604083018561356f565b8181036060830152614dc58184614d4b565b905095945050505050565b600081519050614ddf816132fa565b92915050565b600060208284031215614dfb57614dfa6132c4565b5b6000614e0984828501614dd0565b9150509291505056fea264697066735822122014a9a7bee14815f7fa831f56a6d03a084c23a650145835420d34876e579c718064736f6c634300080a0033",
  "devdoc": {
    "kind": "dev",
    "methods": {
      "approve(address,uint256)": {
        "details": "See {IERC721-approve}."
      },
      "balanceOf(address)": {
        "details": "See {IERC721-balanceOf}."
      },
      "claimToDep(uint256,uint256)": {
        "details": "sender pulls a fee _ and sends claimable part of the donation balance to a dependency NFT: callable by any address",
        "params": {
          "from": "id of the NFT having its donation balance claimed",
          "to": "id of the dependency NFT receiving the donation balance"
        }
      },
      "claimToOwner(uint256)": {
        "details": "sender pulls a fee _ and sends claimable value to address of the owner of _tokenId_: callable by any address",
        "params": {
          "tokenId": "id of the token having its donation pulled "
        }
      },
      "claimable(uint256,uint256)": {
        "details": "owner of the token that received the donation has a claim to `splitMultiplier` / `splitBase` dependencies split the remainder: ( `splitBase` - `splitMultiplier` ) / `splitBase` each dependency can claim (dependencies_split * dependency_share) / totalShares",
        "params": {
          "from": "tokenId that received the donation",
          "to": "tokenId that has a claim over part of the donation received by _from_"
        },
        "returns": {
          "_0": "_ value that `to` can receive for that particular token (`from`)"
        }
      },
      "donate(uint256)": {
        "details": "receives payment as donation updated _totalDonated[tokenId] if there is a _followMe set for _tokenId_ uses this entry as tokenId "
      },
      "getApproved(uint256)": {
        "details": "See {IERC721-getApproved}."
      },
      "isApprovedForAll(address,address)": {
        "details": "See {IERC721-isApprovedForAll}."
      },
      "name()": {
        "details": "See {IERC721Metadata-name}."
      },
      "owner()": {
        "details": "Returns the address of the current owner."
      },
      "ownerOf(uint256)": {
        "details": "See {IERC721-ownerOf}."
      },
      "renounceOwnership()": {
        "details": "Leaves the contract without owner. It will not be possible to call `onlyOwner` functions anymore. Can only be called by the current owner. NOTE: Renouncing ownership will leave the contract without an owner, thereby removing any functionality that is only available to the owner."
      },
      "safeTransferFrom(address,address,uint256)": {
        "details": "See {IERC721-safeTransferFrom}."
      },
      "safeTransferFrom(address,address,uint256,bytes)": {
        "details": "See {IERC721-safeTransferFrom}."
      },
      "setApprovalForAll(address,bool)": {
        "details": "See {IERC721-setApprovalForAll}."
      },
      "supportsInterface(bytes4)": {
        "details": "See {IERC165-supportsInterface}."
      },
      "symbol()": {
        "details": "See {IERC721Metadata-symbol}."
      },
      "tokenURI(uint256)": {
        "details": "See {IERC721Metadata-tokenURI}."
      },
      "transferFrom(address,address,uint256)": {
        "details": "See {IERC721-transferFrom}."
      },
      "transferOwnership(address)": {
        "details": "Transfers ownership of the contract to a new account (`newOwner`). Can only be called by the current owner."
      }
    },
    "stateVariables": {
      "_balanceClaimed": {
        "details": "total value ever claimed to _tokenTo_ from _tokenFrom_'s donations maps _(beneficiary, claimee)_ to _value_ _beneficiary_ is the token claiming part of the donation _claimee_ is the token that received the donation and is having its balance claimed"
      },
      "_dependencies": {
        "details": "list of dependencies created for _tokenId_ list cannot be updated if dependencies must be changed new token should be minted maps _tokenId_ to _dependency list_"
      },
      "_share": {
        "details": "donations to _from_ are automatically sent to _to_ this mapping allows new tokens to be minted with updated dependencies donations sent to old token are still received by the new one with the right split"
      },
      "_totalClaimed": {
        "details": "total value ever claimed from _tokenId_'s donations maps _tokenId_ to _value_"
      },
      "_totalDonated": {
        "details": "total value ever donated to tokenId maps _tokenId_ to _value_"
      }
    },
    "version": 1
  },
  "userdoc": {
    "kind": "user",
    "methods": {
      "claimable(uint256,uint256)": {
        "notice": "gets the value that can be claimed for a pair (to, from)"
      },
      "constructor": {
        "notice": "fee set at .3% tax set at .1% split set at 2/3 "
      },
      "createToken(string,uint256[],uint256[])": {
        "notice": "tokens methods"
      },
      "setClaimFee(uint24,uint8)": {
        "notice": "setters"
      },
      "tokenTotalDonated(uint256)": {
        "notice": "getters"
      }
    },
    "version": 1
  },
  "storageLayout": {
    "storage": [
      {
        "astId": 192,
        "contract": "contracts/NFT.sol:NFT",
        "label": "_name",
        "offset": 0,
        "slot": "0",
        "type": "t_string_storage"
      },
      {
        "astId": 194,
        "contract": "contracts/NFT.sol:NFT",
        "label": "_symbol",
        "offset": 0,
        "slot": "1",
        "type": "t_string_storage"
      },
      {
        "astId": 198,
        "contract": "contracts/NFT.sol:NFT",
        "label": "_owners",
        "offset": 0,
        "slot": "2",
        "type": "t_mapping(t_uint256,t_address)"
      },
      {
        "astId": 202,
        "contract": "contracts/NFT.sol:NFT",
        "label": "_balances",
        "offset": 0,
        "slot": "3",
        "type": "t_mapping(t_address,t_uint256)"
      },
      {
        "astId": 206,
        "contract": "contracts/NFT.sol:NFT",
        "label": "_tokenApprovals",
        "offset": 0,
        "slot": "4",
        "type": "t_mapping(t_uint256,t_address)"
      },
      {
        "astId": 212,
        "contract": "contracts/NFT.sol:NFT",
        "label": "_operatorApprovals",
        "offset": 0,
        "slot": "5",
        "type": "t_mapping(t_address,t_mapping(t_address,t_bool))"
      },
      {
        "astId": 1240,
        "contract": "contracts/NFT.sol:NFT",
        "label": "_tokenURIs",
        "offset": 0,
        "slot": "6",
        "type": "t_mapping(t_uint256,t_string_storage)"
      },
      {
        "astId": 123,
        "contract": "contracts/NFT.sol:NFT",
        "label": "_status",
        "offset": 0,
        "slot": "7",
        "type": "t_uint256"
      },
      {
        "astId": 7,
        "contract": "contracts/NFT.sol:NFT",
        "label": "_owner",
        "offset": 0,
        "slot": "8",
        "type": "t_address"
      },
      {
        "astId": 3217,
        "contract": "contracts/NFT.sol:NFT",
        "label": "_tokenIds",
        "offset": 0,
        "slot": "9",
        "type": "t_struct(Counter)1737_storage"
      },
      {
        "astId": 3222,
        "contract": "contracts/NFT.sol:NFT",
        "label": "_totalDonated",
        "offset": 0,
        "slot": "10",
        "type": "t_mapping(t_uint256,t_uint256)"
      },
      {
        "astId": 3227,
        "contract": "contracts/NFT.sol:NFT",
        "label": "_totalClaimed",
        "offset": 0,
        "slot": "11",
        "type": "t_mapping(t_uint256,t_uint256)"
      },
      {
        "astId": 3234,
        "contract": "contracts/NFT.sol:NFT",
        "label": "_balanceClaimed",
        "offset": 0,
        "slot": "12",
        "type": "t_mapping(t_uint256,t_mapping(t_uint256,t_uint256))"
      },
      {
        "astId": 3240,
        "contract": "contracts/NFT.sol:NFT",
        "label": "_dependencies",
        "offset": 0,
        "slot": "13",
        "type": "t_mapping(t_uint256,t_array(t_uint256)dyn_storage)"
      },
      {
        "astId": 3247,
        "contract": "contracts/NFT.sol:NFT",
        "label": "_share",
        "offset": 0,
        "slot": "14",
        "type": "t_mapping(t_uint256,t_mapping(t_uint256,t_uint256))"
      },
      {
        "astId": 3251,
        "contract": "contracts/NFT.sol:NFT",
        "label": "_totalShares",
        "offset": 0,
        "slot": "15",
        "type": "t_mapping(t_uint256,t_uint256)"
      },
      {
        "astId": 3253,
        "contract": "contracts/NFT.sol:NFT",
        "label": "_treasuryBalance",
        "offset": 0,
        "slot": "16",
        "type": "t_uint256"
      },
      {
        "astId": 3255,
        "contract": "contracts/NFT.sol:NFT",
        "label": "_feeBase",
        "offset": 0,
        "slot": "17",
        "type": "t_uint24"
      },
      {
        "astId": 3257,
        "contract": "contracts/NFT.sol:NFT",
        "label": "_feeMultiplier",
        "offset": 3,
        "slot": "17",
        "type": "t_uint8"
      },
      {
        "astId": 3259,
        "contract": "contracts/NFT.sol:NFT",
        "label": "_taxBase",
        "offset": 4,
        "slot": "17",
        "type": "t_uint24"
      },
      {
        "astId": 3261,
        "contract": "contracts/NFT.sol:NFT",
        "label": "_taxMultiplier",
        "offset": 7,
        "slot": "17",
        "type": "t_uint8"
      },
      {
        "astId": 3263,
        "contract": "contracts/NFT.sol:NFT",
        "label": "_splitBase",
        "offset": 8,
        "slot": "17",
        "type": "t_uint8"
      },
      {
        "astId": 3265,
        "contract": "contracts/NFT.sol:NFT",
        "label": "_splitMultiplier",
        "offset": 9,
        "slot": "17",
        "type": "t_uint8"
      }
    ],
    "types": {
      "t_address": {
        "encoding": "inplace",
        "label": "address",
        "numberOfBytes": "20"
      },
      "t_array(t_uint256)dyn_storage": {
        "base": "t_uint256",
        "encoding": "dynamic_array",
        "label": "uint256[]",
        "numberOfBytes": "32"
      },
      "t_bool": {
        "encoding": "inplace",
        "label": "bool",
        "numberOfBytes": "1"
      },
      "t_mapping(t_address,t_bool)": {
        "encoding": "mapping",
        "key": "t_address",
        "label": "mapping(address => bool)",
        "numberOfBytes": "32",
        "value": "t_bool"
      },
      "t_mapping(t_address,t_mapping(t_address,t_bool))": {
        "encoding": "mapping",
        "key": "t_address",
        "label": "mapping(address => mapping(address => bool))",
        "numberOfBytes": "32",
        "value": "t_mapping(t_address,t_bool)"
      },
      "t_mapping(t_address,t_uint256)": {
        "encoding": "mapping",
        "key": "t_address",
        "label": "mapping(address => uint256)",
        "numberOfBytes": "32",
        "value": "t_uint256"
      },
      "t_mapping(t_uint256,t_address)": {
        "encoding": "mapping",
        "key": "t_uint256",
        "label": "mapping(uint256 => address)",
        "numberOfBytes": "32",
        "value": "t_address"
      },
      "t_mapping(t_uint256,t_array(t_uint256)dyn_storage)": {
        "encoding": "mapping",
        "key": "t_uint256",
        "label": "mapping(uint256 => uint256[])",
        "numberOfBytes": "32",
        "value": "t_array(t_uint256)dyn_storage"
      },
      "t_mapping(t_uint256,t_mapping(t_uint256,t_uint256))": {
        "encoding": "mapping",
        "key": "t_uint256",
        "label": "mapping(uint256 => mapping(uint256 => uint256))",
        "numberOfBytes": "32",
        "value": "t_mapping(t_uint256,t_uint256)"
      },
      "t_mapping(t_uint256,t_string_storage)": {
        "encoding": "mapping",
        "key": "t_uint256",
        "label": "mapping(uint256 => string)",
        "numberOfBytes": "32",
        "value": "t_string_storage"
      },
      "t_mapping(t_uint256,t_uint256)": {
        "encoding": "mapping",
        "key": "t_uint256",
        "label": "mapping(uint256 => uint256)",
        "numberOfBytes": "32",
        "value": "t_uint256"
      },
      "t_string_storage": {
        "encoding": "bytes",
        "label": "string",
        "numberOfBytes": "32"
      },
      "t_struct(Counter)1737_storage": {
        "encoding": "inplace",
        "label": "struct Counters.Counter",
        "members": [
          {
            "astId": 1736,
            "contract": "contracts/NFT.sol:NFT",
            "label": "_value",
            "offset": 0,
            "slot": "0",
            "type": "t_uint256"
          }
        ],
        "numberOfBytes": "32"
      },
      "t_uint24": {
        "encoding": "inplace",
        "label": "uint24",
        "numberOfBytes": "3"
      },
      "t_uint256": {
        "encoding": "inplace",
        "label": "uint256",
        "numberOfBytes": "32"
      },
      "t_uint8": {
        "encoding": "inplace",
        "label": "uint8",
        "numberOfBytes": "1"
      }
    }
  }
}